{
  "address": "0x505869E3B5Ef52a5Db123387fe2d188c44b27b25",
  "abi": [
    {
      "anonymous": false,
      "inputs": [
        {
          "indexed": false,
          "internalType": "uint256",
          "name": "newCounterValue",
          "type": "uint256"
        },
        {
          "indexed": false,
          "internalType": "address",
          "name": "msgSender",
          "type": "address"
        }
      ],
      "name": "IncrementCounter",
      "type": "event"
    },
    {
      "inputs": [],
      "name": "counter",
      "outputs": [
        {
          "internalType": "uint256",
          "name": "",
          "type": "uint256"
        }
      ],
      "stateMutability": "view",
      "type": "function"
    },
    {
      "inputs": [],
      "name": "increment",
      "outputs": [],
      "stateMutability": "nonpayable",
      "type": "function"
    }
  ],
  "transactionHash": "0xb7646d004e40d54359831b0a1dea04b5482e34f0316e5dc9990de383d135e536",
  "args": [],
  "numDeployments": 1,
  "solcInputHash": "83422fea2cc023990ef3464efc6bb3f0",
  "bytecode": "0x608060405234801561001057600080fd5b50610104806100206000396000f3fe6080604052348015600f57600080fd5b506004361060325760003560e01c806361bc221a146037578063d09de08a146051575b600080fd5b603f60005481565b60405190815260200160405180910390f35b60576059565b005b60008054908060668360a8565b9091555050600054604080519182523360208301527fd26752d6efe11773b4a85cdfa0b3fe9efa9707bd50024c7beaed659a141f7858910160405180910390a1565b60006001820160c757634e487b7160e01b600052601160045260246000fd5b506001019056fea264697066735822122010f04387a983ffe8ededa1884b4f768a8b48ea99f45a25b0499c798b08e6e34164736f6c63430008120033",
  "devdoc": {
    "kind": "dev",
    "methods": {},
    "version": 1
  },
  "userdoc": {
    "kind": "user",
    "methods": {},
    "version": 1
  },
  "storageLayout": {
    "storage": [
      {
        "astId": 3,
        "contract": "contracts/SimpleCounter.sol:SimpleCounter",
        "label": "counter",
        "offset": 0,
        "slot": "0",
        "type": "t_uint256"
      }
    ],
    "types": {
      "t_uint256": {
        "encoding": "inplace",
        "label": "uint256",
        "numberOfBytes": "32"
      }
    }
  }
}